{
  "contractName": "Ballot",
  "abi": [
    {
      "inputs": [
        {
          "internalType": "address",
          "name": "_myToken",
          "type": "address"
        }
      ],
      "stateMutability": "nonpayable",
      "type": "constructor"
    },
    {
      "anonymous": false,
      "inputs": [
        {
          "indexed": false,
          "internalType": "uint256",
          "name": "id",
          "type": "uint256"
        },
        {
          "indexed": false,
          "internalType": "address",
          "name": "proposer",
          "type": "address"
        },
        {
          "indexed": false,
          "internalType": "bytes32",
          "name": "name",
          "type": "bytes32"
        },
        {
          "indexed": false,
          "internalType": "bytes32",
          "name": "proposalType",
          "type": "bytes32"
        }
      ],
      "name": "ProposalCreated",
      "type": "event"
    },
    {
      "anonymous": false,
      "inputs": [],
      "name": "VoteEnded",
      "type": "event"
    },
    {
      "anonymous": false,
      "inputs": [],
      "name": "VoteStarted",
      "type": "event"
    },
    {
      "inputs": [],
      "name": "chairperson",
      "outputs": [
        {
          "internalType": "address",
          "name": "",
          "type": "address"
        }
      ],
      "stateMutability": "view",
      "type": "function"
    },
    {
      "inputs": [],
      "name": "myToken",
      "outputs": [
        {
          "internalType": "address",
          "name": "",
          "type": "address"
        }
      ],
      "stateMutability": "view",
      "type": "function"
    },
    {
      "inputs": [
        {
          "internalType": "uint256",
          "name": "",
          "type": "uint256"
        }
      ],
      "name": "proposals",
      "outputs": [
        {
          "internalType": "uint256",
          "name": "id",
          "type": "uint256"
        },
        {
          "internalType": "address",
          "name": "proposer",
          "type": "address"
        },
        {
          "internalType": "string",
          "name": "name",
          "type": "string"
        },
        {
          "internalType": "string",
          "name": "proposalType",
          "type": "string"
        },
        {
          "internalType": "uint256",
          "name": "votersCount",
          "type": "uint256"
        },
        {
          "internalType": "uint256",
          "name": "yeaVotePercent",
          "type": "uint256"
        },
        {
          "internalType": "uint256",
          "name": "nayVotePercent",
          "type": "uint256"
        },
        {
          "internalType": "uint256",
          "name": "totalTokenInvested",
          "type": "uint256"
        }
      ],
      "stateMutability": "view",
      "type": "function"
    },
    {
      "inputs": [],
      "name": "startedAt",
      "outputs": [
        {
          "internalType": "uint256",
          "name": "",
          "type": "uint256"
        }
      ],
      "stateMutability": "view",
      "type": "function"
    },
    {
      "inputs": [],
      "name": "totalSupplyOfMyToken",
      "outputs": [
        {
          "internalType": "uint256",
          "name": "",
          "type": "uint256"
        }
      ],
      "stateMutability": "view",
      "type": "function"
    },
    {
      "inputs": [
        {
          "internalType": "address",
          "name": "",
          "type": "address"
        }
      ],
      "name": "voters",
      "outputs": [
        {
          "internalType": "uint256",
          "name": "weight",
          "type": "uint256"
        },
        {
          "internalType": "uint256",
          "name": "vote",
          "type": "uint256"
        }
      ],
      "stateMutability": "view",
      "type": "function"
    },
    {
      "inputs": [
        {
          "internalType": "string",
          "name": "_proposalName",
          "type": "string"
        },
        {
          "internalType": "string",
          "name": "_proposalType",
          "type": "string"
        }
      ],
      "name": "propose",
      "outputs": [],
      "stateMutability": "nonpayable",
      "type": "function"
    },
    {
      "inputs": [
        {
          "internalType": "uint256",
          "name": "proposalID",
          "type": "uint256"
        },
        {
          "internalType": "bool",
          "name": "isYea",
          "type": "bool"
        }
      ],
      "name": "vote",
      "outputs": [],
      "stateMutability": "nonpayable",
      "type": "function"
    },
    {
      "inputs": [],
      "name": "startVoting",
      "outputs": [],
      "stateMutability": "nonpayable",
      "type": "function"
    },
    {
      "inputs": [],
      "name": "forceTerminateVoting",
      "outputs": [],
      "stateMutability": "nonpayable",
      "type": "function"
    }
  ],
  "bytecode": "0x608060405234801561001057600080fd5b5060405161178d38038061178d8339818101604052602081101561003357600080fd5b8101908080519060200190929190505050336000806101000a81548173ffffffffffffffffffffffffffffffffffffffff021916908373ffffffffffffffffffffffffffffffffffffffff1602179055506001600360008060009054906101000a900473ffffffffffffffffffffffffffffffffffffffff1673ffffffffffffffffffffffffffffffffffffffff1673ffffffffffffffffffffffffffffffffffffffff1681526020019081526020016000206000018190555080600160006101000a81548173ffffffffffffffffffffffffffffffffffffffff021916908373ffffffffffffffffffffffffffffffffffffffff160217905550600160009054906101000a900473ffffffffffffffffffffffffffffffffffffffff1673ffffffffffffffffffffffffffffffffffffffff166318160ddd6040518163ffffffff1660e01b815260040160206040518083038186803b15801561019657600080fd5b505afa1580156101aa573d6000803e3d6000fd5b505050506040513d60208110156101c057600080fd5b81019080805190602001909291905050506002819055506000600760006101000a81548160ff021916908360028111156101f657fe5b0217905550506115828061020b6000396000f3fe608060405234801561001057600080fd5b506004361061009e5760003560e01c80633356ce4f116100665780633356ce4f146103a4578063a3ec138d146103ae578063b8fcf9371461040d578063c9d27afe14610441578063f21f537d1461047b5761009e565b8063013cf08b146100a357806310a07a7c146101f65780631c4afc57146102145780631ec6b60a146103665780632e4176cf14610370575b600080fd5b6100cf600480360360208110156100b957600080fd5b8101908080359060200190929190505050610499565b604051808981526020018873ffffffffffffffffffffffffffffffffffffffff1681526020018060200180602001878152602001868152602001858152602001848152602001838103835289818151815260200191508051906020019080838360005b8381101561014d578082015181840152602081019050610132565b50505050905090810190601f16801561017a5780820380516001836020036101000a031916815260200191505b50838103825288818151815260200191508051906020019080838360005b838110156101b3578082015181840152602081019050610198565b50505050905090810190601f1680156101e05780820380516001836020036101000a031916815260200191505b509a505050505050505050505060405180910390f35b6101fe610631565b6040518082815260200191505060405180910390f35b6103646004803603604081101561022a57600080fd5b810190808035906020019064010000000081111561024757600080fd5b82018360208201111561025957600080fd5b8035906020019184600183028401116401000000008311171561027b57600080fd5b91908080601f016020809104026020016040519081016040528093929190818152602001838380828437600081840152601f19601f820116905080830192505050505050509192919290803590602001906401000000008111156102de57600080fd5b8201836020820111156102f057600080fd5b8035906020019184600183028401116401000000008311171561031257600080fd5b91908080601f016020809104026020016040519081016040528093929190818152602001838380828437600081840152601f19601f820116905080830192505050505050509192919290505050610637565b005b61036e6108a6565b005b6103786109b5565b604051808273ffffffffffffffffffffffffffffffffffffffff16815260200191505060405180910390f35b6103ac6109d9565b005b6103f0600480360360208110156103c457600080fd5b81019080803573ffffffffffffffffffffffffffffffffffffffff169060200190929190505050610afa565b604051808381526020018281526020019250505060405180910390f35b610415610b1e565b604051808273ffffffffffffffffffffffffffffffffffffffff16815260200191505060405180910390f35b6104796004803603604081101561045757600080fd5b8101908080359060200190929190803515159060200190929190505050610b44565b005b6104836111b7565b6040518082815260200191505060405180910390f35b60056020528060005260406000206000915090508060000154908060010160009054906101000a900473ffffffffffffffffffffffffffffffffffffffff1690806002018054600181600116156101000203166002900480601f0160208091040260200160405190810160405280929190818152602001828054600181600116156101000203166002900480156105715780601f1061054657610100808354040283529160200191610571565b820191906000526020600020905b81548152906001019060200180831161055457829003601f168201915b505050505090806003018054600181600116156101000203166002900480601f01602080910402602001604051908101604052809291908181526020018280546001816001161561010002031660029004801561060f5780601f106105e45761010080835404028352916020019161060f565b820191906000526020600020905b8154815290600101906020018083116105f257829003601f168201915b5050505050908060060154908060070154908060080154908060090154905088565b60025481565b60008054906101000a900473ffffffffffffffffffffffffffffffffffffffff1673ffffffffffffffffffffffffffffffffffffffff163373ffffffffffffffffffffffffffffffffffffffff161461068f57600080fd5b336000600160009054906101000a900473ffffffffffffffffffffffffffffffffffffffff1673ffffffffffffffffffffffffffffffffffffffff166370a08231836040518263ffffffff1660e01b8152600401808273ffffffffffffffffffffffffffffffffffffffff16815260200191505060206040518083038186803b15801561071b57600080fd5b505afa15801561072f573d6000803e3d6000fd5b505050506040513d602081101561074557600080fd5b81019080805190602001909291905050501161076057600080fd5b60046000815480929190600101919050555061077a611355565b60405180610100016040528060045481526020013373ffffffffffffffffffffffffffffffffffffffff168152602001858152602001848152602001600081526020016000815260200160008152602001600081525090508060056000836000015181526020019081526020016000206000820151816000015560208201518160010160006101000a81548173ffffffffffffffffffffffffffffffffffffffff021916908373ffffffffffffffffffffffffffffffffffffffff16021790555060408201518160020190805190602001906108579291906113b0565b5060608201518160030190805190602001906108749291906113b0565b506080820151816006015560a0820151816007015560c0820151816008015560e0820151816009015590505050505050565b60008054906101000a900473ffffffffffffffffffffffffffffffffffffffff1673ffffffffffffffffffffffffffffffffffffffff163373ffffffffffffffffffffffffffffffffffffffff16146108fe57600080fd5b61a8c060065401421161095c576040517f08c379a00000000000000000000000000000000000000000000000000000000081526004018080602001828103825260258152602001806114fd6025913960400191505060405180910390fd5b426006819055506001600760006101000a81548160ff0219169083600281111561098257fe5b02179055507f1ad0a1ab13806f2b802415fa49a77ed3f633af31788e4a0645de1fc90c2a0da460405160405180910390a1565b60008054906101000a900473ffffffffffffffffffffffffffffffffffffffff1681565b60008054906101000a900473ffffffffffffffffffffffffffffffffffffffff1673ffffffffffffffffffffffffffffffffffffffff163373ffffffffffffffffffffffffffffffffffffffff1614610a3157600080fd5b60016002811115610a3e57fe5b600760009054906101000a900460ff166002811115610a5957fe5b14610acc576040517f08c379a000000000000000000000000000000000000000000000000000000000815260040180806020018281038252601c8152602001807f566f74696e6720686173206e6f74206265656e20737461727465642e0000000081525060200191505060405180910390fd5b60006006819055506000600760006101000a81548160ff02191690836002811115610af357fe5b0217905550565b60036020528060005260406000206000915090508060000154908060010154905082565b600160009054906101000a900473ffffffffffffffffffffffffffffffffffffffff1681565b336000600160009054906101000a900473ffffffffffffffffffffffffffffffffffffffff1673ffffffffffffffffffffffffffffffffffffffff166370a08231836040518263ffffffff1660e01b8152600401808273ffffffffffffffffffffffffffffffffffffffff16815260200191505060206040518083038186803b158015610bd057600080fd5b505afa158015610be4573d6000803e3d6000fd5b505050506040513d6020811015610bfa57600080fd5b810190808051906020019092919050505011610c1557600080fd5b60016002811115610c2257fe5b600760009054906101000a900460ff166002811115610c3d57fe5b14610cb0576040517f08c379a000000000000000000000000000000000000000000000000000000000815260040180806020018281038252601c8152602001807f566f74696e6720686173206e6f74206265656e20737461727465642e0000000081525060200191505060405180910390fd5b60065442118015610cc6575061a8c06006540142105b610d38576040517f08c379a00000000000000000000000000000000000000000000000000000000081526004018080602001828103825260188152602001807f566f74696e6720686173206265656e20657870697265642e000000000000000081525060200191505060405180910390fd5b6000600360003373ffffffffffffffffffffffffffffffffffffffff1673ffffffffffffffffffffffffffffffffffffffff16815260200190815260200160002090506000600160009054906101000a900473ffffffffffffffffffffffffffffffffffffffff1673ffffffffffffffffffffffffffffffffffffffff166370a08231336040518263ffffffff1660e01b8152600401808273ffffffffffffffffffffffffffffffffffffffff16815260200191505060206040518083038186803b158015610e0657600080fd5b505afa158015610e1a573d6000803e3d6000fd5b505050506040513d6020811015610e3057600080fd5b81019080805190602001909291905050509050600254811115610e9e576040517f08c379a000000000000000000000000000000000000000000000000000000000815260040180806020018281038252602b815260200180611522602b913960400191505060405180910390fd5b610eb3600254826111bd90919063ffffffff16565b82600001819055506000600560008781526020019081526020016000209050600015158160040160003373ffffffffffffffffffffffffffffffffffffffff1673ffffffffffffffffffffffffffffffffffffffff16815260200190815260200160002060009054906101000a900460ff16151514610f7d576040517f08c379a00000000000000000000000000000000000000000000000000000000081526004018080602001828103825260288152602001806114d56028913960400191505060405180910390fd5b8060060160008154809291906001019190505550828160050160003373ffffffffffffffffffffffffffffffffffffffff1673ffffffffffffffffffffffffffffffffffffffff168152602001908152602001600020600082015481600001556001820154816001015590505060018160040160003373ffffffffffffffffffffffffffffffffffffffff1673ffffffffffffffffffffffffffffffffffffffff16815260200190815260200160002060006101000a81548160ff02191690831515021790555061105b82826009015461120790919063ffffffff16565b8160090181905550841561108d5761108082826008015461120790919063ffffffff16565b81600701819055506110ad565b6110a482826008015461120790919063ffffffff16565b81600801819055505b80836002016000888152602001908152602001600020600082015481600001556001820160009054906101000a900473ffffffffffffffffffffffffffffffffffffffff168160010160006101000a81548173ffffffffffffffffffffffffffffffffffffffff021916908373ffffffffffffffffffffffffffffffffffffffff1602179055506002820181600201908054600181600116156101000203166002900461115b929190611430565b5060038201816003019080546001816001161561010002031660029004611183929190611430565b5060068201548160060155600782015481600701556008820154816008015560098201548160090155905050505050505050565b60065481565b60006111ff83836040518060400160405280601a81526020017f536166654d6174683a206469766973696f6e206279207a65726f00000000000081525061128f565b905092915050565b600080828401905083811015611285576040517f08c379a000000000000000000000000000000000000000000000000000000000815260040180806020018281038252601b8152602001807f536166654d6174683a206164646974696f6e206f766572666c6f77000000000081525060200191505060405180910390fd5b8091505092915050565b6000808311829061133b576040517f08c379a00000000000000000000000000000000000000000000000000000000081526004018080602001828103825283818151815260200191508051906020019080838360005b838110156113005780820151818401526020810190506112e5565b50505050905090810190601f16801561132d5780820380516001836020036101000a031916815260200191505b509250505060405180910390fd5b50600083858161134757fe5b049050809150509392505050565b60405180610100016040528060008152602001600073ffffffffffffffffffffffffffffffffffffffff1681526020016060815260200160608152602001600081526020016000815260200160008152602001600081525090565b828054600181600116156101000203166002900490600052602060002090601f016020900481019282601f106113f157805160ff191683800117855561141f565b8280016001018555821561141f579182015b8281111561141e578251825591602001919060010190611403565b5b50905061142c91906114b7565b5090565b828054600181600116156101000203166002900490600052602060002090601f016020900481019282601f1061146957805485556114a6565b828001600101855582156114a657600052602060002091601f016020900482015b828111156114a557825482559160010191906001019061148a565b5b5090506114b391906114b7565b5090565b5b808211156114d05760008160009055506001016114b8565b509056fe596f7520616c7265616479206861766520766f74656420746f20746869732070726f706f73616c2e50726576696f757320766f74696e6720686173206e6f74206265656e2066696e697368656442616c616e63652063616e6e6f742062652067726561746572207468616e20746f74616c20737570706c79a26469706673582212202700931cc5474926273e829269fc6f276ce2af597f917861c3508d3c0bba03a664736f6c634300060c0033",
  "immutableReferences": {},
  "source": "// SPDX-License-Identifier: MIT\r\n\r\npragma solidity >0.6.1 <0.7.0;\r\n\r\nimport \"./DCIP.sol\";\r\n\r\ncontract Ballot {\r\n    // This declares a new complex type which will\r\n    // be used for variables later.\r\n    // It will represent a single voter.\r\n    using SafeMath for uint256;\r\n\r\n    struct Voter {\r\n        uint256 weight; // weight is accumulated by delegation\r\n        uint256 vote; // index of the voted proposal\r\n        mapping(uint256 => Proposal) proposals;\r\n    }\r\n\r\n    // This is a type for a single proposal.\r\n    struct Proposal {\r\n        uint256 id;\r\n        address proposer;\r\n        string name; // short name (up to 32 bytes)\r\n        string proposalType; // type of proposal (up to 32 bytes)\r\n        mapping(address => bool) voted;\r\n        mapping(address => Voter) voters;\r\n        uint256 votersCount; // number of accumulated votes\r\n        uint256 yeaVotePercent;\r\n        uint256 nayVotePercent;\r\n        uint256 totalTokenInvested;\r\n    }\r\n\r\n    address public chairperson;\r\n    address public myToken;\r\n    uint256 public totalSupplyOfMyToken;\r\n\r\n    mapping(address => Voter) public voters;\r\n\r\n    uint256 proposalCount;\r\n\r\n    mapping(uint256 => Proposal) public proposals;\r\n\r\n    uint256 public startedAt;\r\n\r\n    modifier onlyEligibleVoter(address _voter) {\r\n        require(IBEP20(myToken).balanceOf(_voter) > 0);\r\n        _;\r\n    }\r\n\r\n    modifier onlyChairman {\r\n        require(msg.sender == chairperson);\r\n        _;\r\n    }\r\n\r\n    enum VotingState {Diactive, Active, Expired}\r\n\r\n    VotingState state;\r\n\r\n    event ProposalCreated(\r\n        uint256 id,\r\n        address proposer,\r\n        bytes32 name,\r\n        bytes32 proposalType\r\n    );\r\n    event VoteStarted();\r\n    event VoteEnded();\r\n\r\n    /// Create a new ballot to choose one of `proposalNames`.\r\n\r\n    // bytes32[] memory proposalNames\r\n    constructor(address _myToken) public {\r\n        chairperson = msg.sender;\r\n        voters[chairperson].weight = 1;\r\n        myToken = _myToken;\r\n        totalSupplyOfMyToken = IBEP20(myToken).totalSupply();\r\n        state = VotingState.Diactive;\r\n    }\r\n\r\n    // Give `voter` the right to vote on this ballot.\r\n    // May only be called by `chairperson`.\r\n    // function giveRightToVote(address voter) public {\r\n    //     // If the first argument of `require` evaluates\r\n    //     // to `false`, execution terminates and all\r\n    //     // changes to the state and to Ether balances\r\n    //     // are reverted.\r\n    //     // This used to consume all gas in old EVM versions, but\r\n    //     // not anymore.\r\n    //     // It is often a good idea to use `require` to check if\r\n    //     // functions are called correctly.\r\n    //     // As a second argument, you can also provide an\r\n    //     // explanation about what went wrong.\r\n    //     require(\r\n    //         msg.sender == chairperson,\r\n    //         \"Only chairperson can give right to vote.\"\r\n    //     );\r\n    //     require(\r\n    //         !voters[voter].voted,\r\n    //         \"The voter already voted.\"\r\n    //     );\r\n    //     require(voters[voter].weight == 0);\r\n    //     voters[voter].weight = 1;\r\n    // }\r\n\r\n    function propose(string memory _proposalName, string memory _proposalType)\r\n        public\r\n        onlyChairman\r\n        onlyEligibleVoter(msg.sender)\r\n    {\r\n        proposalCount++;\r\n        Proposal memory newProposal =\r\n            Proposal({\r\n                id: proposalCount,\r\n                proposer: msg.sender,\r\n                name: _proposalName,\r\n                proposalType: _proposalType,\r\n                votersCount: 0,\r\n                yeaVotePercent: 0,\r\n                nayVotePercent: 0,\r\n                totalTokenInvested: 0\r\n            });\r\n\r\n        proposals[newProposal.id] = newProposal;\r\n    }\r\n\r\n    /// Give your vote (including votes delegated to you)\r\n    /// to proposal `proposals[proposal].name`.\r\n    function vote(uint256 proposalID, bool isYea)\r\n        public\r\n        onlyEligibleVoter(msg.sender)\r\n    {\r\n        require(state == VotingState.Active, \"Voting has not been started.\");\r\n        require(\r\n            block.timestamp > startedAt &&\r\n                block.timestamp < startedAt + 12 hours,\r\n            \"Voting has been expired.\"\r\n        );\r\n        Voter storage _sender = voters[msg.sender];\r\n        uint256 _voterTokenCount = IBEP20(myToken).balanceOf(msg.sender);\r\n\r\n        require(_voterTokenCount <= totalSupplyOfMyToken, \"Balance cannot be greater than total supply\");\r\n        _sender.weight = _voterTokenCount.div(totalSupplyOfMyToken);\r\n\r\n        Proposal storage _proposal = proposals[proposalID];\r\n        require(\r\n            _proposal.voted[msg.sender] == false,\r\n            \"You already have voted to this proposal.\"\r\n        );\r\n\r\n        _proposal.votersCount++;\r\n        _proposal.voters[msg.sender] = _sender;\r\n        _proposal.voted[msg.sender] = true;\r\n        _proposal.totalTokenInvested = _proposal.totalTokenInvested.add(\r\n            _voterTokenCount\r\n        );\r\n\r\n        if (isYea) {\r\n            _proposal.yeaVotePercent = _proposal.nayVotePercent.add(\r\n                _voterTokenCount\r\n            );\r\n        } else {\r\n            _proposal.nayVotePercent = _proposal.nayVotePercent.add(\r\n                _voterTokenCount\r\n            );\r\n        }\r\n\r\n        _sender.proposals[proposalID] = _proposal;\r\n    }\r\n\r\n    function startVoting() public onlyChairman {\r\n        require(\r\n            block.timestamp > startedAt + 12 hours,\r\n            \"Previous voting has not been finished\"\r\n        );\r\n        startedAt = block.timestamp;\r\n        state = VotingState.Active;\r\n        emit VoteStarted();\r\n    }\r\n\r\n    function forceTerminateVoting() public onlyChairman {\r\n        require(state == VotingState.Active, \"Voting has not been started.\");\r\n        startedAt = 0;\r\n        state = VotingState.Diactive;\r\n    }\r\n}\r\n",
  "sourcePath": "/Users/jasperverbeet/Projects/dcip/smart-contracts/contracts/Voting.sol",
  "compiler": {
    "name": "solc",
    "version": "0.6.12+commit.27d51765.Emscripten.clang"
  },
  "schemaVersion": "3.4.1",
  "updatedAt": "2021-06-23T15:40:36.733Z",
  "devdoc": {
    "kind": "dev",
    "methods": {},
    "version": 1
  },
  "userdoc": {
    "kind": "user",
    "methods": {
      "constructor": "Create a new ballot to choose one of `proposalNames`.",
      "vote(uint256,bool)": {
        "notice": "Give your vote (including votes delegated to you) to proposal `proposals[proposal].name`."
      }
    },
    "version": 1
  }
}